:03000000020D12DC
:0C0D1200787FE4F6D8FD75813E020D5993
:100E8E004875612048756160732044657369676EAB
:100E9E0000486148614861486100202020202020E0
:100EAE00202020202020202020200054656D3A2074
:100EBE00202043202054483A0048756D3A202020C7
:070ECE0025202048483A00EE
:0810F400C100C102C103C101EA
:100FDD00E4F521F522D296D295781BF6087628787D
:100FED0019F6087655F52E75280175290175260116
:040FFD007527012231
:0E10CC00D2A9758901758A06758CF8D28C221E
:03000B00020F41A0
:100F4100C0E0C0D0758A06758CF80522E5227002D2
:100F51000521C394E8E52194034008D200752100DE
:080F6100752200D0D0D0E0326F
:100D9E007B007A00791B8B238A248925120BADFDEB
:100DAE00E4FF1210A37FF47E01121080740125253A
:100DBE00F525E43524F524AB23FAA925120BADFD58
:100DCE007F011210A37FF47E011210807B007A0047
:100DDE0079198B238A248925120BADFD7F021210FF
:100DEE00A37FF47E0112108074012525F525E435CC
:100DFE0024F524AB23FAA925120BADFD7F031210A7
:080E0E00A37FF47E01021080B5
:100C750075230075240075251BE4FF120F90AB2327
:100C85000525E525AA247002052414F9EF120BC6E3
:100C95007F01120F90AB23AA24A925EF120BC6756D
:100CA50023007524007525197F02120F90AB2305CB
:100CB50025E525AA247002052414F9EF120BC67F39
:100CC50003120F90AB23AA24A925EF120BC6781B9C
:100CD500E6FE08E6D39463EE648094805008C3EE84
:100CE500648094805007781B76000876287819E68A
:100CF500FE08E6D39463EE648094805008C3EE64E6
:0D0D050080948050077819760008765522FA
:1009C700EE6003020ACDEF24FE602714606B1470FB
:1009D70003020A8624036003020ACDC3781CE69447
:1009E7006318E664809480501E0806E618700106B6
:1009F7008015D3781CE6940118E66480948040073C
:100A070008E61618700116781BE6FE08E6FF7C005C
:100A17007D0A120C3FEF2430FB7D0F7F0112100679
:100A2700781BE6FE08E6FF7C007D0A120C3FED24EA
:100A370030FB7D107F01020ACAC3781AE694631857
:100A4700E66480948050070806E618700106781956
:100A5700E6FE08E6FF7C007D0A120C3FEF2430FB20
:100A67007D0F7F021210067819E6FE08E6FF7C006C
:100A77007D0A120C3FED2430FB7D107F028044D3AA
:100A8700781AE6940118E664809480400708E61611
:100A9700187001167819E6FE08E6FF7C007D0A1239
:100AA7000C3FEF2430FB7D0F7F021210067819E60A
:100AB700FE08E6FF7C007D0A120C3FED2430FB7D2B
:090AC700107F02121006020D9EC0
:10080000C2AF1210CC120FDDD2AF12105A7BFF7A9A
:100810000E798E7D017F01120F187BFF7A0E799F72
:100820007D017F02120F18E4FFFEE4FDFC0DBD0008
:10083000010CBC02F8BDBCF50FBF00010EBE02EA00
:10084000BFBCE77BFF7A0E79A87D017F01120F18EC
:100850007BFF7A0E79A87D017F02120F187BFF7A49
:100860000E79B97D017F01120F187BFF7A0E79C7CF
:100870007D017F02120F18120C75781BE6FE08E648
:10088000FF7C007D0A120C3FEF2430FB7D0F7F01BF
:10089000121006781BE6FE08E6FF7C007D0A120CAB
:1008A0003FED2430FB7D107F011210067819E6FE23
:1008B00008E6FF7C007D0A120C3FEF2430FB7D0F21
:1008C0007F021210067819E6FE08E6FF7C007D0A1A
:1008D000120C3FED2430FB7D107F02121006300019
:1008E00030C28C120E167531008F32C200D28C7558
:1008F0002F00851330752A0085092BAB2BAA2A7D82
:10090000057F01120AD0AB30AA2F7D057F02120AA3
:10091000D0D3E52B781C9618E66480F8E52A64802D
:10092000984006C295D2038004D295C203D3E53025
:10093000781A9618E66480F8E52F6480984006C21D
:1009400096D2018004D296C201200303300104C272
:10095000938002D29330B20BE5287007D202752E35
:1009600001802830B30BE5297007D202752E028072
:100970001A30B40BE5267007D202752E03800C30B6
:10098000B509E5277005D202752E04300209AF2E95
:100990007E001209C7C20220B205E4F52880037563
:1009A000280120B305E4F529800375290120B40549
:1009B000E4F526800375260120B506E4F527020834
:0709C000DE7527010208DECD
:090FB700C2A61211308F80D2A5F0
:100FC000E4FFFEE4FDFC0DBD00010CED64034C707C
:0C0FD000F50FBF00010EEF640B4E70E740
:010FDC0022F2
:01113000229C
:0A110C00C2A7120FB7C2A5020FC060
:0A111600D2A7120FB7C2A5020FC046
:10105A007F3812110C7F0C12110C7F0612110C7FB3
:09106A000112110C7FD002110CDF
:051001002430FBAF33B9
:02100600AE0733
:10100800BE01027A80BE02027AC0EA2D14FAFF12EB
:07101800110CAF03021116D9
:100F1800BF0103753380BF02037533C0E5332D1459
:100F2800F533FF12110C120BADFF600C1211167481
:080F38000129F9E43AFA80EE08
:010F4000228E
:080AD0008F338D348A358B361B
:100AD800C3E535648094804007E4F53DF53E800623
:100AE800753D00753E01AF36AE35121100AB07AA51
:100AF800067C007D64120BEA8E3B8F3C7C007D6493
:100B0800120BD8C3EB9FFBEA9EFA7D0AAF03FE12D5
:100B18000BEA8E398F3A7C007D0A120BD8C3EB9F03
:100B2800F538EA9EF537AF36AE351211008E358F9F
:100B380036C3E5369464E53564809480401CE53E10
:100B48006401453D70097B2DAD34AF33121006E5C5
:100B58003404FDE53C1210018020C3E536940AE513
:100B68003564809480401FE53E6401453D700BE587
:100B78003404FD7B2DAF33121006E5342402FDE565
:100B88003A1210018014E53E6401453D700CE534CD
:100B98002402FD7B2DAF33121006E5342403FDE556
:040BA80038121001EE
:010BAC002226
:0310FC00010800E8
:10108C00D3EF9400EE9400400DE4FD0DBD1BFCEF7E
:06109C001F70ED1E80EA4A
:0110A200222B
:0C10DA001533153315331533153315335A
:0110E60022E7
:100ED500E4FF750D02209707AE0D050DEE70F612B5
:100EE50010DA1210DA1210DAE4F5123097037512DF
:100EF50001750D02309707AE0D050DEE70F6E50D87
:100F05006401600EE51825E0F518E51242180FBFDB
:020F150008C012
:010F170022B7
:100E1600C2977FB47E0012108CD2971210DA12108D
:100E2600DA1210DA1210DAD297209759750D0220CD
:100E36009707AF0D050DEF70F6750D02309707AFEA
:100E46000D050DEF70F6120ED5851815120ED58507
:100E56001816120ED585180B120ED585180C120E03
:100E6600D5851811D297E50B250C25152516F512F3
:100E7600B5110F851513851614850B09850C0A8582
:080E8600110F7F01227F002201
:0D1073007F017E00121080D2907F017E0070
:0C108000EF4E6007EF1F70F81E80F52295
:1010BA00C29012107CD29112107AC29112107CC284
:0210CA00902272
:0D10E700C29112107AD29112107CC2902298
:08112000C29112107AC2902264
:08112800D291121073C2902253
:0B0F690012101F120F74AF0312101FB4
:100F74007DFA121073A29130D70B1DA291ED70F778
:0B0F84001210E7D32212107CC290C3B1
:010F8F00223F
:02101F00AD071B
:10102100E4FCEDA804088002C333D8FC30E70512C4
:0B103100112880031211200CBC08E7FE
:01103C002291
:10103D00E4FDFCD29112107AED25E0FD30910543CF
:0C104D0005018000C2900CBC08E9AF0552
:011059002274
:020F9000AB07AD
:100F9200E4FDC2041210BA7FA0120F691210BA7FC8
:100FA200A112101F120F7412103DAD071211281258
:040FB20010E7AF0590
:010FB6002218
:1010A300AB05AA071210BA7FA012101F120F74AF5C
:0710B30002120F690210E7B1
:100D1E00020800E493A3F8E493A34003F68001F2E3
:100D2E0008DFF48029E493A3F85407240CC8C333D6
:100D3E00C4540F4420C8834004F456800146F6DFA5
:100D4E00E4800B01020408102040809010F4E47E31
:100D5E00019360BCA3FF543F30E509541FFEE4939A
:100D6E00A360010ECF54C025E060A840B8E493A361
:100D7E00FAE493A3F8E493A3C8C582C8CAC583CA8C
:100D8E00F0A3C8C582C8CAC583CADFE9DEE780BE44
:0110FF0000F0
:100BAD00BB010689828A83E0225002E722BBFE0246
:090BBD00E32289828A83E4932279
:100BC600BB010689828A83F0225002F722BBFE010E
:020BD600F32208
:100BD800EF8DF0A4A8F0CF8CF0A428CE8DF0A42E31
:020BE800FE22EB
:100BEA00BC000BBE0029EF8DF084FFADF022E4CCEF
:100BFA00F875F008EF2FFFEE33FEEC33FCEE9DECB8
:100C0A00984005FCEE9DFE0FD5F0E9E4CEFD22EDFD
:100C1A00F8F5F0EE8420D21CFEADF075F008EF2F47
:100C2A00FFED33FD4007985006D5F0F222C398FD38
:050C3A000FD5F0EA22D5
:100C3F00C2D5EC30E709B2D5E4C39DFDE49CFCEED0
:100C4F0030E715B2D5E4C39FFFE49EFE120BEAC353
:100C5F00E49DFDE49CFC8003120BEA30D507C3E44E
:060C6F009FFFE49EFE223F
:0C110000EE30E707C3E49FFFE49EFE22F0
:00000001FF
